{
  "contractName": "CustomerPoints",
  "abi": [
    {
      "constant": true,
      "inputs": [],
      "name": "totalPoints",
      "outputs": [
        {
          "name": "",
          "type": "uint256"
        }
      ],
      "payable": false,
      "stateMutability": "view",
      "type": "function"
    },
    {
      "constant": true,
      "inputs": [],
      "name": "numCustomers",
      "outputs": [
        {
          "name": "",
          "type": "uint256"
        }
      ],
      "payable": false,
      "stateMutability": "view",
      "type": "function"
    },
    {
      "constant": true,
      "inputs": [
        {
          "name": "",
          "type": "uint256"
        }
      ],
      "name": "customers",
      "outputs": [
        {
          "name": "customerId",
          "type": "uint256"
        },
        {
          "name": "name",
          "type": "string"
        },
        {
          "name": "country",
          "type": "string"
        },
        {
          "name": "points",
          "type": "uint256"
        }
      ],
      "payable": false,
      "stateMutability": "view",
      "type": "function"
    },
    {
      "inputs": [],
      "payable": false,
      "stateMutability": "nonpayable",
      "type": "constructor"
    },
    {
      "constant": false,
      "inputs": [
        {
          "name": "_name",
          "type": "string"
        },
        {
          "name": "_amount",
          "type": "uint256"
        },
        {
          "name": "_country",
          "type": "string"
        }
      ],
      "name": "assignPoints",
      "outputs": [],
      "payable": false,
      "stateMutability": "nonpayable",
      "type": "function"
    },
    {
      "constant": true,
      "inputs": [
        {
          "name": "_index",
          "type": "uint256"
        }
      ],
      "name": "getCustomer",
      "outputs": [
        {
          "name": "",
          "type": "string"
        },
        {
          "name": "",
          "type": "uint256"
        },
        {
          "name": "",
          "type": "string"
        }
      ],
      "payable": false,
      "stateMutability": "view",
      "type": "function"
    },
    {
      "constant": false,
      "inputs": [
        {
          "name": "_index",
          "type": "uint256"
        },
        {
          "name": "_newCountry",
          "type": "string"
        }
      ],
      "name": "setCustomerCountry",
      "outputs": [],
      "payable": false,
      "stateMutability": "nonpayable",
      "type": "function"
    },
    {
      "constant": true,
      "inputs": [],
      "name": "remainingPoints",
      "outputs": [
        {
          "name": "",
          "type": "uint256"
        }
      ],
      "payable": false,
      "stateMutability": "view",
      "type": "function"
    }
  ],
  "bytecode": "0x608060405260008055620f42406001553480156200001c57600080fd5b506200009c6040518060400160405280600981526020017f456c6f6e204d75736b00000000000000000000000000000000000000000000008152506103e86040518060400160405280600881526020017f4261726261646f73000000000000000000000000000000000000000000000000815250620000a260201b60201c565b6200035d565b606083905060058151116200011f576040517f08c379a00000000000000000000000000000000000000000000000000000000081526004018080602001828103825260118152602001807f4e616d6520697320746f6f2073686f727400000000000000000000000000000081525060200191505060405180910390fd5b82600154116200017b576040517f08c379a000000000000000000000000000000000000000000000000000000000815260040180806020018281038252602481526020018062000f506024913960400191505060405180910390fd5b826001541015620001f4576040517f08c379a000000000000000000000000000000000000000000000000000000000815260040180806020018281038252601c8152602001807f4e6f7420656e6f75676820706f696e747320617661696c61626c652e0000000081525060200191505060405180910390fd5b82600154116200020057fe5b82600154036001819055506000808154809291906001019190505550604051806080016040528060005481526020018581526020018381526020018481525060026000805481526020019081526020016000206000820151816000015560208201518160010190805190602001906200027b929190620002ae565b5060408201518160020190805190602001906200029a929190620002ae565b506060820151816003015590505050505050565b828054600181600116156101000203166002900490600052602060002090601f016020900481019282601f10620002f157805160ff191683800117855562000322565b8280016001018555821562000322579182015b828111156200032157825182559160200191906001019062000304565b5b50905062000331919062000335565b5090565b6200035a91905b80821115620003565760008160009055506001016200033c565b5090565b90565b610be3806200036d6000396000f3fe608060405234801561001057600080fd5b506004361061007d5760003560e01c806395dd02db1161005b57806395dd02db146100dc578063a14fdf0714610238578063c0abda2a146102fd578063eb876f271461041e5761007d565b80633b224ca414610082578063567142be146100a057806388ca16b2146100be575b600080fd5b61008a610538565b6040518082815260200191505060405180910390f35b6100a8610542565b6040518082815260200191505060405180910390f35b6100c6610548565b6040518082815260200191505060405180910390f35b610236600480360360608110156100f257600080fd5b810190808035906020019064010000000081111561010f57600080fd5b82018360208201111561012157600080fd5b8035906020019184600183028401116401000000008311171561014357600080fd5b91908080601f016020809104026020016040519081016040528093929190818152602001838380828437600081840152601f19601f82011690508083019250505050505050919291929080359060200190929190803590602001906401000000008111156101b057600080fd5b8201836020820111156101c257600080fd5b803590602001918460018302840111640100000000831117156101e457600080fd5b91908080601f016020809104026020016040519081016040528093929190818152602001838380828437600081840152601f19601f82011690508083019250505050505050919291929050505061054e565b005b6102fb6004803603604081101561024e57600080fd5b81019080803590602001909291908035906020019064010000000081111561027557600080fd5b82018360208201111561028757600080fd5b803590602001918460018302840111640100000000831117156102a957600080fd5b91908080601f016020809104026020016040519081016040528093929190818152602001838380828437600081840152601f19601f820116905080830192505050505050509192919290505050610751565b005b6103296004803603602081101561031357600080fd5b8101908080359060200190929190505050610780565b604051808581526020018060200180602001848152602001838103835286818151815260200191508051906020019080838360005b8381101561037957808201518184015260208101905061035e565b50505050905090810190601f1680156103a65780820380516001836020036101000a031916815260200191505b50838103825285818151815260200191508051906020019080838360005b838110156103df5780820151818401526020810190506103c4565b50505050905090810190601f16801561040c5780820380516001836020036101000a031916815260200191505b50965050505050505060405180910390f35b61044a6004803603602081101561043457600080fd5b81019080803590602001909291905050506108e0565b604051808060200184815260200180602001838103835286818151815260200191508051906020019080838360005b83811015610494578082015181840152602081019050610479565b50505050905090810190601f1680156104c15780820380516001836020036101000a031916815260200191505b50838103825284818151815260200191508051906020019080838360005b838110156104fa5780820151818401526020810190506104df565b50505050905090810190601f1680156105275780820380516001836020036101000a031916815260200191505b509550505050505060405180910390f35b6000600154905090565b60015481565b60005481565b606083905060058151116105ca576040517f08c379a00000000000000000000000000000000000000000000000000000000081526004018080602001828103825260118152602001807f4e616d6520697320746f6f2073686f727400000000000000000000000000000081525060200191505060405180910390fd5b8260015411610624576040517f08c379a0000000000000000000000000000000000000000000000000000000008152600401808060200182810382526024815260200180610b946024913960400191505060405180910390fd5b82600154101561069c576040517f08c379a000000000000000000000000000000000000000000000000000000000815260040180806020018281038252601c8152602001807f4e6f7420656e6f75676820706f696e747320617661696c61626c652e0000000081525060200191505060405180910390fd5b82600154116106a757fe5b8260015403600181905550600080815480929190600101919050555060405180608001604052806000548152602001858152602001838152602001848152506002600080548152602001908152602001600020600082015181600001556020820151816001019080519060200190610720929190610a6e565b50604082015181600201908051906020019061073d929190610a6e565b506060820151816003015590505050505050565b8060026000848152602001908152602001600020600201908051906020019061077b929190610aee565b505050565b6002602052806000526040600020600091509050806000015490806001018054600181600116156101000203166002900480601f0160208091040260200160405190810160405280929190818152602001828054600181600116156101000203166002900480156108325780601f1061080757610100808354040283529160200191610832565b820191906000526020600020905b81548152906001019060200180831161081557829003601f168201915b505050505090806002018054600181600116156101000203166002900480601f0160208091040260200160405190810160405280929190818152602001828054600181600116156101000203166002900480156108d05780601f106108a5576101008083540402835291602001916108d0565b820191906000526020600020905b8154815290600101906020018083116108b357829003601f168201915b5050505050908060030154905084565b60606000606060026000858152602001908152602001600020600101600260008681526020019081526020016000206003015460026000878152602001908152602001600020600201828054600181600116156101000203166002900480601f0160208091040260200160405190810160405280929190818152602001828054600181600116156101000203166002900480156109be5780601f10610993576101008083540402835291602001916109be565b820191906000526020600020905b8154815290600101906020018083116109a157829003601f168201915b50505050509250808054600181600116156101000203166002900480601f016020809104026020016040519081016040528092919081815260200182805460018160011615610100020316600290048015610a5a5780601f10610a2f57610100808354040283529160200191610a5a565b820191906000526020600020905b815481529060010190602001808311610a3d57829003601f168201915b505050505090509250925092509193909250565b828054600181600116156101000203166002900490600052602060002090601f016020900481019282601f10610aaf57805160ff1916838001178555610add565b82800160010185558215610add579182015b82811115610adc578251825591602001919060010190610ac1565b5b509050610aea9190610b6e565b5090565b828054600181600116156101000203166002900490600052602060002090601f016020900481019282601f10610b2f57805160ff1916838001178555610b5d565b82800160010185558215610b5d579182015b82811115610b5c578251825591602001919060010190610b41565b5b509050610b6a9190610b6e565b5090565b610b9091905b80821115610b8c576000816000905550600101610b74565b5090565b9056fe496e73756666696369656e742066756e647320746f20616c6c6f77207472616e73666572a165627a7a72305820282a8df68901491e7a18741e72b6f23ddba66b2057cfd2294c132f611e895c110029496e73756666696369656e742066756e647320746f20616c6c6f77207472616e73666572",
  "source": "pragma solidity^0.5.0;\r\n\r\ncontract CustomerPoints {\r\n\r\n    uint public numCustomers = 0;   \r\n    uint public totalPoints = 1000000;\r\n  \r\n  struct Customer {\r\n    uint customerId;\r\n    string name;\r\n    string country;\r\n    uint points;\r\n  }\r\n  \r\n  mapping(uint => Customer) public customers;\r\n  \r\n  constructor() public {\r\n    assignPoints('Elon Musk',1000,'Barbados');\r\n  }\r\n\r\n  function assignPoints(string memory _name, uint _amount, string memory _country) public {\r\n      \r\n    bytes memory _nameBytes = bytes(_name);\r\n    require(_nameBytes.length > 5,\"Name is too short\");\r\n    require(totalPoints > _amount,\"Insufficient funds to allow transfer\");\r\n    if(totalPoints < _amount)\r\n        revert(\"Not enough points available.\");\r\n    assert(totalPoints > _amount);\r\n    totalPoints = totalPoints-_amount;\r\n    numCustomers++;\r\n    customers[numCustomers] = Customer(numCustomers, _name, _country, _amount);\r\n    \r\n  }\r\n  \r\n  function getCustomer(uint _index) view public returns(string memory, uint, string memory){\r\n  \treturn (customers[_index].name, customers[_index].points, customers[_index].country);\r\n  }\r\n  \r\n  function setCustomerCountry(uint _index, string memory _newCountry) public{\r\n    customers[_index].country = _newCountry;\r\n  }\r\n    \r\n    function remainingPoints() view public returns (uint) {\r\n        return totalPoints;\r\n    }\r\n\r\n}",
  "sourcePath": "C:/Users/asapj/joshua/contracts/CustomerPoints.sol",
  "compiler": {
    "name": "solc",
    "version": "0.5.8+commit.23d335f2.Emscripten.clang"
  },
  "schemaVersion": "3.0.11",
  "updatedAt": "2019-07-24T21:14:04.986Z",
  "devdoc": {
    "methods": {}
  },
  "userdoc": {
    "methods": {}
  }
}